{
    "contractName": "Collection",
    "abi": [
        {
            "inputs": [
                {
                    "internalType": "address",
                    "name": "initialOwner",
                    "type": "address"
                },
                {
                    "internalType": "string",
                    "name": "_name",
                    "type": "string"
                },
                {
                    "internalType": "uint256",
                    "name": "_cardCount",
                    "type": "uint256"
                }
            ],
            "stateMutability": "nonpayable",
            "type": "constructor"
        },
        {
            "inputs": [
                {
                    "internalType": "address",
                    "name": "sender",
                    "type": "address"
                },
                {
                    "internalType": "uint256",
                    "name": "tokenId",
                    "type": "uint256"
                },
                {
                    "internalType": "address",
                    "name": "owner",
                    "type": "address"
                }
            ],
            "name": "ERC721IncorrectOwner",
            "type": "error"
        },
        {
            "inputs": [
                {
                    "internalType": "address",
                    "name": "operator",
                    "type": "address"
                },
                {
                    "internalType": "uint256",
                    "name": "tokenId",
                    "type": "uint256"
                }
            ],
            "name": "ERC721InsufficientApproval",
            "type": "error"
        },
        {
            "inputs": [
                {
                    "internalType": "address",
                    "name": "approver",
                    "type": "address"
                }
            ],
            "name": "ERC721InvalidApprover",
            "type": "error"
        },
        {
            "inputs": [
                {
                    "internalType": "address",
                    "name": "operator",
                    "type": "address"
                }
            ],
            "name": "ERC721InvalidOperator",
            "type": "error"
        },
        {
            "inputs": [
                {
                    "internalType": "address",
                    "name": "owner",
                    "type": "address"
                }
            ],
            "name": "ERC721InvalidOwner",
            "type": "error"
        },
        {
            "inputs": [
                {
                    "internalType": "address",
                    "name": "receiver",
                    "type": "address"
                }
            ],
            "name": "ERC721InvalidReceiver",
            "type": "error"
        },
        {
            "inputs": [
                {
                    "internalType": "address",
                    "name": "sender",
                    "type": "address"
                }
            ],
            "name": "ERC721InvalidSender",
            "type": "error"
        },
        {
            "inputs": [
                {
                    "internalType": "uint256",
                    "name": "tokenId",
                    "type": "uint256"
                }
            ],
            "name": "ERC721NonexistentToken",
            "type": "error"
        },
        {
            "inputs": [
                {
                    "internalType": "address",
                    "name": "owner",
                    "type": "address"
                }
            ],
            "name": "OwnableInvalidOwner",
            "type": "error"
        },
        {
            "inputs": [
                {
                    "internalType": "address",
                    "name": "account",
                    "type": "address"
                }
            ],
            "name": "OwnableUnauthorizedAccount",
            "type": "error"
        },
        {
            "anonymous": false,
            "inputs": [
                {
                    "indexed": true,
                    "internalType": "address",
                    "name": "owner",
                    "type": "address"
                },
                {
                    "indexed": true,
                    "internalType": "address",
                    "name": "approved",
                    "type": "address"
                },
                {
                    "indexed": true,
                    "internalType": "uint256",
                    "name": "tokenId",
                    "type": "uint256"
                }
            ],
            "name": "Approval",
            "type": "event"
        },
        {
            "anonymous": false,
            "inputs": [
                {
                    "indexed": true,
                    "internalType": "address",
                    "name": "owner",
                    "type": "address"
                },
                {
                    "indexed": true,
                    "internalType": "address",
                    "name": "operator",
                    "type": "address"
                },
                {
                    "indexed": false,
                    "internalType": "bool",
                    "name": "approved",
                    "type": "bool"
                }
            ],
            "name": "ApprovalForAll",
            "type": "event"
        },
        {
            "anonymous": false,
            "inputs": [
                {
                    "indexed": false,
                    "internalType": "uint256",
                    "name": "_fromTokenId",
                    "type": "uint256"
                },
                {
                    "indexed": false,
                    "internalType": "uint256",
                    "name": "_toTokenId",
                    "type": "uint256"
                }
            ],
            "name": "BatchMetadataUpdate",
            "type": "event"
        },
        {
            "anonymous": false,
            "inputs": [
                {
                    "indexed": true,
                    "internalType": "address",
                    "name": "user",
                    "type": "address"
                },
                {
                    "indexed": false,
                    "internalType": "uint256[]",
                    "name": "cardIds",
                    "type": "uint256[]"
                }
            ],
            "name": "BoosterOpened",
            "type": "event"
        },
        {
            "anonymous": false,
            "inputs": [
                {
                    "indexed": true,
                    "internalType": "uint256",
                    "name": "cardId",
                    "type": "uint256"
                },
                {
                    "indexed": false,
                    "internalType": "string",
                    "name": "name",
                    "type": "string"
                },
                {
                    "indexed": false,
                    "internalType": "string",
                    "name": "cardType",
                    "type": "string"
                },
                {
                    "indexed": false,
                    "internalType": "string",
                    "name": "rarity",
                    "type": "string"
                },
                {
                    "indexed": false,
                    "internalType": "string",
                    "name": "imageUrl",
                    "type": "string"
                },
                {
                    "indexed": false,
                    "internalType": "string",
                    "name": "effect",
                    "type": "string"
                },
                {
                    "indexed": false,
                    "internalType": "uint32",
                    "name": "attack",
                    "type": "uint32"
                },
                {
                    "indexed": false,
                    "internalType": "uint32",
                    "name": "defense",
                    "type": "uint32"
                }
            ],
            "name": "CardAdded",
            "type": "event"
        },
        {
            "anonymous": false,
            "inputs": [
                {
                    "indexed": true,
                    "internalType": "uint256",
                    "name": "tokenId",
                    "type": "uint256"
                },
                {
                    "indexed": false,
                    "internalType": "uint256",
                    "name": "maxQuantity",
                    "type": "uint256"
                }
            ],
            "name": "CardLimitReached",
            "type": "event"
        },
        {
            "anonymous": false,
            "inputs": [
                {
                    "indexed": true,
                    "internalType": "address",
                    "name": "buyer",
                    "type": "address"
                },
                {
                    "indexed": true,
                    "internalType": "uint256",
                    "name": "tokenId",
                    "type": "uint256"
                },
                {
                    "indexed": false,
                    "internalType": "uint256",
                    "name": "price",
                    "type": "uint256"
                }
            ],
            "name": "CardPurchased",
            "type": "event"
        },
        {
            "anonymous": false,
            "inputs": [
                {
                    "indexed": true,
                    "internalType": "address",
                    "name": "from",
                    "type": "address"
                },
                {
                    "indexed": true,
                    "internalType": "address",
                    "name": "to",
                    "type": "address"
                },
                {
                    "indexed": true,
                    "internalType": "uint256",
                    "name": "tokenId",
                    "type": "uint256"
                }
            ],
            "name": "CardTraded",
            "type": "event"
        },
        {
            "anonymous": false,
            "inputs": [
                {
                    "indexed": true,
                    "internalType": "uint256",
                    "name": "tokenId",
                    "type": "uint256"
                },
                {
                    "indexed": false,
                    "internalType": "string",
                    "name": "name",
                    "type": "string"
                },
                {
                    "indexed": false,
                    "internalType": "string",
                    "name": "cardType",
                    "type": "string"
                },
                {
                    "indexed": false,
                    "internalType": "string",
                    "name": "rarity",
                    "type": "string"
                },
                {
                    "indexed": false,
                    "internalType": "string",
                    "name": "imageUrl",
                    "type": "string"
                },
                {
                    "indexed": false,
                    "internalType": "string",
                    "name": "effect",
                    "type": "string"
                },
                {
                    "indexed": false,
                    "internalType": "uint32",
                    "name": "attack",
                    "type": "uint32"
                },
                {
                    "indexed": false,
                    "internalType": "uint32",
                    "name": "defense",
                    "type": "uint32"
                }
            ],
            "name": "CardUpdated",
            "type": "event"
        },
        {
            "anonymous": false,
            "inputs": [
                {
                    "indexed": false,
                    "internalType": "uint256",
                    "name": "_tokenId",
                    "type": "uint256"
                }
            ],
            "name": "MetadataUpdate",
            "type": "event"
        },
        {
            "anonymous": false,
            "inputs": [
                {
                    "indexed": true,
                    "internalType": "address",
                    "name": "previousOwner",
                    "type": "address"
                },
                {
                    "indexed": true,
                    "internalType": "address",
                    "name": "newOwner",
                    "type": "address"
                }
            ],
            "name": "OwnershipTransferred",
            "type": "event"
        },
        {
            "anonymous": false,
            "inputs": [
                {
                    "indexed": true,
                    "internalType": "address",
                    "name": "from",
                    "type": "address"
                },
                {
                    "indexed": true,
                    "internalType": "address",
                    "name": "to",
                    "type": "address"
                },
                {
                    "indexed": true,
                    "internalType": "uint256",
                    "name": "tokenId",
                    "type": "uint256"
                }
            ],
            "name": "Transfer",
            "type": "event"
        },
        {
            "inputs": [
                {
                    "internalType": "uint256",
                    "name": "",
                    "type": "uint256"
                }
            ],
            "name": "CollectionCards",
            "outputs": [
                {
                    "internalType": "string",
                    "name": "name",
                    "type": "string"
                },
                {
                    "internalType": "string",
                    "name": "cardType",
                    "type": "string"
                },
                {
                    "internalType": "string",
                    "name": "rarity",
                    "type": "string"
                },
                {
                    "internalType": "string",
                    "name": "imageUrl",
                    "type": "string"
                },
                {
                    "internalType": "string",
                    "name": "effect",
                    "type": "string"
                },
                {
                    "internalType": "uint32",
                    "name": "attack",
                    "type": "uint32"
                },
                {
                    "internalType": "uint32",
                    "name": "defense",
                    "type": "uint32"
                },
                {
                    "internalType": "uint256",
                    "name": "quantity",
                    "type": "uint256"
                },
                {
                    "internalType": "uint256",
                    "name": "price",
                    "type": "uint256"
                }
            ],
            "stateMutability": "view",
            "type": "function"
        },
        {
            "inputs": [
                {
                    "internalType": "string",
                    "name": "_name",
                    "type": "string"
                },
                {
                    "internalType": "string",
                    "name": "_cardType",
                    "type": "string"
                },
                {
                    "internalType": "string",
                    "name": "_rarity",
                    "type": "string"
                },
                {
                    "internalType": "string",
                    "name": "_imageUrl",
                    "type": "string"
                },
                {
                    "internalType": "string",
                    "name": "_effect",
                    "type": "string"
                },
                {
                    "internalType": "uint32",
                    "name": "_attack",
                    "type": "uint32"
                },
                {
                    "internalType": "uint32",
                    "name": "_defense",
                    "type": "uint32"
                },
                {
                    "internalType": "uint256",
                    "name": "_quantity",
                    "type": "uint256"
                },
                {
                    "internalType": "uint256",
                    "name": "_price",
                    "type": "uint256"
                }
            ],
            "name": "addCard",
            "outputs": [],
            "stateMutability": "nonpayable",
            "type": "function"
        },
        {
            "inputs": [
                {
                    "internalType": "address",
                    "name": "to",
                    "type": "address"
                },
                {
                    "internalType": "uint256",
                    "name": "tokenId",
                    "type": "uint256"
                }
            ],
            "name": "approve",
            "outputs": [],
            "stateMutability": "nonpayable",
            "type": "function"
        },
        {
            "inputs": [
                {
                    "internalType": "address",
                    "name": "owner",
                    "type": "address"
                }
            ],
            "name": "balanceOf",
            "outputs": [
                {
                    "internalType": "uint256",
                    "name": "",
                    "type": "uint256"
                }
            ],
            "stateMutability": "view",
            "type": "function"
        },
        {
            "inputs": [],
            "name": "cardCount",
            "outputs": [
                {
                    "internalType": "uint256",
                    "name": "",
                    "type": "uint256"
                }
            ],
            "stateMutability": "view",
            "type": "function"
        },
        {
            "inputs": [
                {
                    "internalType": "uint256",
                    "name": "",
                    "type": "uint256"
                }
            ],
            "name": "cardToOwner",
            "outputs": [
                {
                    "internalType": "address",
                    "name": "",
                    "type": "address"
                }
            ],
            "stateMutability": "view",
            "type": "function"
        },
        {
            "inputs": [],
            "name": "collectionName",
            "outputs": [
                {
                    "internalType": "string",
                    "name": "",
                    "type": "string"
                }
            ],
            "stateMutability": "view",
            "type": "function"
        },
        {
            "inputs": [
                {
                    "internalType": "uint256",
                    "name": "tokenId",
                    "type": "uint256"
                }
            ],
            "name": "getApproved",
            "outputs": [
                {
                    "internalType": "address",
                    "name": "",
                    "type": "address"
                }
            ],
            "stateMutability": "view",
            "type": "function"
        },
        {
            "inputs": [
                {
                    "internalType": "uint256",
                    "name": "tokenId",
                    "type": "uint256"
                }
            ],
            "name": "getCardDetails",
            "outputs": [
                {
                    "internalType": "string",
                    "name": "name",
                    "type": "string"
                },
                {
                    "internalType": "string",
                    "name": "cardType",
                    "type": "string"
                },
                {
                    "internalType": "string",
                    "name": "rarity",
                    "type": "string"
                },
                {
                    "internalType": "string",
                    "name": "imageUrl",
                    "type": "string"
                },
                {
                    "internalType": "uint256",
                    "name": "quantity",
                    "type": "uint256"
                },
                {
                    "internalType": "uint256",
                    "name": "price",
                    "type": "uint256"
                }
            ],
            "stateMutability": "view",
            "type": "function"
        },
        {
            "inputs": [
                {
                    "internalType": "uint256",
                    "name": "tokenId",
                    "type": "uint256"
                }
            ],
            "name": "getCardOwner",
            "outputs": [
                {
                    "internalType": "address",
                    "name": "",
                    "type": "address"
                }
            ],
            "stateMutability": "view",
            "type": "function"
        },
        {
            "inputs": [],
            "name": "getCollectionCards",
            "outputs": [
                {
                    "components": [
                        {
                            "internalType": "string",
                            "name": "name",
                            "type": "string"
                        },
                        {
                            "internalType": "string",
                            "name": "cardType",
                            "type": "string"
                        },
                        {
                            "internalType": "string",
                            "name": "rarity",
                            "type": "string"
                        },
                        {
                            "internalType": "string",
                            "name": "imageUrl",
                            "type": "string"
                        },
                        {
                            "internalType": "string",
                            "name": "effect",
                            "type": "string"
                        },
                        {
                            "internalType": "uint32",
                            "name": "attack",
                            "type": "uint32"
                        },
                        {
                            "internalType": "uint32",
                            "name": "defense",
                            "type": "uint32"
                        },
                        {
                            "internalType": "uint256",
                            "name": "quantity",
                            "type": "uint256"
                        },
                        {
                            "internalType": "uint256",
                            "name": "price",
                            "type": "uint256"
                        }
                    ],
                    "internalType": "struct Collection.Card[]",
                    "name": "",
                    "type": "tuple[]"
                }
            ],
            "stateMutability": "view",
            "type": "function"
        },
        {
            "inputs": [
                {
                    "internalType": "address",
                    "name": "owner",
                    "type": "address"
                }
            ],
            "name": "getOwnerCardCount",
            "outputs": [
                {
                    "internalType": "uint256",
                    "name": "",
                    "type": "uint256"
                }
            ],
            "stateMutability": "view",
            "type": "function"
        },
        {
            "inputs": [
                {
                    "internalType": "address",
                    "name": "owner",
                    "type": "address"
                },
                {
                    "internalType": "address",
                    "name": "operator",
                    "type": "address"
                }
            ],
            "name": "isApprovedForAll",
            "outputs": [
                {
                    "internalType": "bool",
                    "name": "",
                    "type": "bool"
                }
            ],
            "stateMutability": "view",
            "type": "function"
        },
        {
            "inputs": [],
            "name": "name",
            "outputs": [
                {
                    "internalType": "string",
                    "name": "",
                    "type": "string"
                }
            ],
            "stateMutability": "view",
            "type": "function"
        },
        {
            "inputs": [],
            "name": "owner",
            "outputs": [
                {
                    "internalType": "address",
                    "name": "",
                    "type": "address"
                }
            ],
            "stateMutability": "view",
            "type": "function"
        },
        {
            "inputs": [
                {
                    "internalType": "address",
                    "name": "",
                    "type": "address"
                }
            ],
            "name": "ownerCardCount",
            "outputs": [
                {
                    "internalType": "uint256",
                    "name": "",
                    "type": "uint256"
                }
            ],
            "stateMutability": "view",
            "type": "function"
        },
        {
            "inputs": [
                {
                    "internalType": "uint256",
                    "name": "tokenId",
                    "type": "uint256"
                }
            ],
            "name": "ownerOf",
            "outputs": [
                {
                    "internalType": "address",
                    "name": "",
                    "type": "address"
                }
            ],
            "stateMutability": "view",
            "type": "function"
        },
        {
            "inputs": [
                {
                    "internalType": "uint256",
                    "name": "tokenId",
                    "type": "uint256"
                }
            ],
            "name": "purchaseCard",
            "outputs": [],
            "stateMutability": "payable",
            "type": "function"
        },
        {
            "inputs": [],
            "name": "renounceOwnership",
            "outputs": [],
            "stateMutability": "nonpayable",
            "type": "function"
        },
        {
            "inputs": [
                {
                    "internalType": "address",
                    "name": "from",
                    "type": "address"
                },
                {
                    "internalType": "address",
                    "name": "to",
                    "type": "address"
                },
                {
                    "internalType": "uint256",
                    "name": "tokenId",
                    "type": "uint256"
                }
            ],
            "name": "safeTransferFrom",
            "outputs": [],
            "stateMutability": "nonpayable",
            "type": "function"
        },
        {
            "inputs": [
                {
                    "internalType": "address",
                    "name": "from",
                    "type": "address"
                },
                {
                    "internalType": "address",
                    "name": "to",
                    "type": "address"
                },
                {
                    "internalType": "uint256",
                    "name": "tokenId",
                    "type": "uint256"
                },
                {
                    "internalType": "bytes",
                    "name": "data",
                    "type": "bytes"
                }
            ],
            "name": "safeTransferFrom",
            "outputs": [],
            "stateMutability": "nonpayable",
            "type": "function"
        },
        {
            "inputs": [
                {
                    "internalType": "address",
                    "name": "operator",
                    "type": "address"
                },
                {
                    "internalType": "bool",
                    "name": "approved",
                    "type": "bool"
                }
            ],
            "name": "setApprovalForAll",
            "outputs": [],
            "stateMutability": "nonpayable",
            "type": "function"
        },
        {
            "inputs": [
                {
                    "internalType": "bytes4",
                    "name": "interfaceId",
                    "type": "bytes4"
                }
            ],
            "name": "supportsInterface",
            "outputs": [
                {
                    "internalType": "bool",
                    "name": "",
                    "type": "bool"
                }
            ],
            "stateMutability": "view",
            "type": "function"
        },
        {
            "inputs": [],
            "name": "symbol",
            "outputs": [
                {
                    "internalType": "string",
                    "name": "",
                    "type": "string"
                }
            ],
            "stateMutability": "view",
            "type": "function"
        },
        {
            "inputs": [
                {
                    "internalType": "uint256",
                    "name": "tokenId",
                    "type": "uint256"
                }
            ],
            "name": "tokenURI",
            "outputs": [
                {
                    "internalType": "string",
                    "name": "",
                    "type": "string"
                }
            ],
            "stateMutability": "view",
            "type": "function"
        },
        {
            "inputs": [
                {
                    "internalType": "address",
                    "name": "from",
                    "type": "address"
                },
                {
                    "internalType": "address",
                    "name": "to",
                    "type": "address"
                },
                {
                    "internalType": "uint256",
                    "name": "tokenId",
                    "type": "uint256"
                }
            ],
            "name": "transferFrom",
            "outputs": [],
            "stateMutability": "nonpayable",
            "type": "function"
        },
        {
            "inputs": [
                {
                    "internalType": "address",
                    "name": "newOwner",
                    "type": "address"
                }
            ],
            "name": "transferOwnership",
            "outputs": [],
            "stateMutability": "nonpayable",
            "type": "function"
        }
    ],
    "bytecode": "608060405234610502576121108038038061001981610506565b92833981016060828203126105025781516001600160a01b03811692908390036105025760208101516001600160401b0381116105025781019082601f830112156105025781516001600160401b03811161032857610081601f8201601f1916602001610506565b9381855260208285010111610502576020815f9282604096018388015e8501015201516100ae6040610506565b600381526259474f60e81b602082015282519093906001600160401b038111610328575f54600181811c911680156104f8575b602082101461030a57601f8111610496575b50806020601f8211600114610435575f9161042a575b508160011b915f199060031b1c1916175f555b83516001600160401b03811161032857600154600181811c91168015610420575b602082101461030a57601f81116103bd575b50602094601f821160011461035a579481929394955f9261034f575b50508160011b915f199060031b1c1916176001555b801561033c57600780546001600160a01b0319811683179091556001600160a01b03167f8be0079c531659141344cd1fd0a4f28419497f9722a3daafe3b4186f6b6457e05f80a381516001600160401b03811161032857600854600181811c9116801561031e575b602082101461030a57601f81116102a7575b50602092601f821160011461024657928192935f9261023b575b50508160011b915f199060031b1c1916176008555b600955604051611be4908161052c8239f35b015190505f80610214565b601f1982169360085f52805f20915f5b86811061028f5750836001959610610277575b505050811b01600855610229565b01515f1960f88460031b161c191690555f8080610269565b91926020600181928685015181550194019201610256565b60085f527ff3f7a9fe364faab93b216da50a3214154f22a0a2b415b23a84c8169e8b636ee3601f830160051c81019160208410610300575b601f0160051c01905b8181106102f557506101fa565b5f81556001016102e8565b90915081906102df565b634e487b7160e01b5f52602260045260245ffd5b90607f16906101e8565b634e487b7160e01b5f52604160045260245ffd5b631e4fbdf760e01b5f525f60045260245ffd5b015190505f8061016b565b601f1982169560015f52805f20915f5b8881106103a55750836001959697981061038d575b505050811b01600155610180565b01515f1960f88460031b161c191690555f808061037f565b9192602060018192868501518155019401920161036a565b60015f527fb10e2d527612073b26eecdfd717e6a320cf44b4afac2b0732d9fcbe2b7fa0cf6601f830160051c81019160208410610416575b601f0160051c01905b81811061040b575061014f565b5f81556001016103fe565b90915081906103f5565b90607f169061013d565b90508401515f610109565b5f8080528181209250601f198416905b81811061047e57509083600194939210610466575b5050811b015f5561011c565b8601515f1960f88460031b161c191690555f8061045a565b9192602060018192868b015181550194019201610445565b5f80527f290decd9548b62a8d60345a988386fc84ba6bc95484008f6362f93160ef3e563601f830160051c810191602084106104ee575b601f0160051c01905b8181106104e357506100f3565b5f81556001016104d6565b90915081906104cd565b90607f16906100e1565b5f80fd5b6040519190601f01601f191682016001600160401b038111838210176103285760405256fe6080806040526004361015610012575f80fd5b5f3560e01c908163010abbd0146115d15750806301ffc9a71461154957806306fdde03146114a7578063081812fc1461146b578063095ea7b31461138157806317580c731461128b5780631b6cde101461126e57806323b872dd146112575780632607fc66146108ca57806342842e0e1461122e5780634a10cb9714610a8e57806360fe9952146109de5780636352211e146109ae57806370a082311461095d578063715018a614610902578063804c4b25146108ca5780638da5cb5b146108a257806395d89b41146107fd578063a22cb46514610762578063a54447aa146105d2578063b88d4fde14610571578063c87b56dd14610552578063e5326ab114610470578063e55c6eab14610258578063e985e9c514610201578063f2fde38b1461017b5763ffb976ec14610145575f80fd5b34610177576020366003190112610177576004355f52600b602052602060018060a01b0360405f205416604051908152f35b5f80fd5b3461017757602036600319011261017757610194611623565b61019c611b87565b6001600160a01b031680156101ee57600780546001600160a01b0319811683179091556001600160a01b03167f8be0079c531659141344cd1fd0a4f28419497f9722a3daafe3b4186f6b6457e05f80a3005b631e4fbdf760e01b5f525f60045260245ffd5b346101775760403660031901126101775761021a611623565b610222611639565b9060018060a01b03165f52600560205260405f209060018060a01b03165f52602052602060ff60405f2054166040519015158152f35b34610177575f36600319011261017757600a546001600160401b03811161045c576040519061028d60208260051b01836116d3565b808252602082019081600a5f527fc65a7bb8d6351c1cf70c95a316cc6a92839c986682d98bc35f958f4883f9d2a85f915b8383106103bf57848660405191829160208301906020845251809152604083019060408160051b85010192915f905b8282106102fc57505050500390f35b919360019193955060208091603f198982030185528751906101008061037f61036d61035b610349610339885161012089526101208901906115ff565b898901518882038b8a01526115ff565b604088015187820360408901526115ff565b606087015186820360608801526115ff565b608086015185820360808701526115ff565b9363ffffffff60a08201511660a085015263ffffffff60c08201511660c085015260e081015160e0850152015191015296019201920185949391926102ed565b600860206001926040516103d2816116b7565b6103db866116f4565b81526103e88587016116f4565b838201526103f8600287016116f4565b6040820152610409600387016116f4565b606082015261041a600487016116f4565b608082015263ffffffff600587015481811660a0840152841c1660c0820152600686015460e082015260078601546101008201528152019201920191906102be565b634e487b7160e01b5f52604160045260245ffd5b34610177575f366003190112610177576040515f6008546104908161167f565b808452906001811690811561052e57506001146104d0575b6104cc836104b8818503826116d3565b6040519182916020835260208301906115ff565b0390f35b60085f9081527ff3f7a9fe364faab93b216da50a3214154f22a0a2b415b23a84c8169e8b636ee3939250905b808210610514575090915081016020016104b86104a8565b9192600181602092548385880101520191019092916104fc565b60ff191660208086019190915291151560051b840190910191506104b890506104a8565b34610177576020366003190112610177576104cc6104b8600435611b23565b346101775760803660031901126101775761058a611623565b610592611639565b606435916001600160401b0383116101775736602384011215610177576105c66105d09336906024816004013591016117e9565b91604435916119e3565b005b6020366003190112610177576004356105ea8161164f565b506007810190815434106107255760060190815480156106f0575f19018255335f52600c60205260405f2080545f1981146106dc5760010190555f838152600b6020526040812080546001600160a01b0319163317905560075481908190819081906001600160a01b031634156106d2575b3491f1156106c7578290546040519081527fa90b50bfe45a40fae07e02f3195c6c6d8080611cb497b9ceec8d7e81dd80dc7560203392a3541561069b57005b7f084da9832b5d98b3a7dc03859c2c71c6d10e772ffd2a47526a4d60025d04119260206040515f8152a2005b6040513d5f823e3d90fd5b6108fc915061065c565b634e487b7160e01b5f52601160045260245ffd5b60405162461bcd60e51b815260206004820152600d60248201526c10d85c99081cdbdb19081bdd5d609a1b6044820152606490fd5b60405162461bcd60e51b8152602060048201526015602482015274139bdd08195b9bdd59da08115d1a195c881cd95b9d605a1b6044820152606490fd5b346101775760403660031901126101775761077b611623565b60243590811515809203610177576001600160a01b03169081156107ea57335f52600560205260405f20825f5260205260405f2060ff1981541660ff83161790556040519081527f17307eab39ab6107e8899845ad3d59bd9653f200f220920489ca2b5937696c3160203392a3005b50630b61174360e31b5f5260045260245ffd5b34610177575f366003190112610177576040515f60015461081d8161167f565b808452906001811690811561052e5750600114610844576104cc836104b8818503826116d3565b60015f9081527fb10e2d527612073b26eecdfd717e6a320cf44b4afac2b0732d9fcbe2b7fa0cf6939250905b808210610888575090915081016020016104b86104a8565b919260018160209254838588010152019101909291610870565b34610177575f366003190112610177576007546040516001600160a01b039091168152602090f35b34610177576020366003190112610177576001600160a01b036108eb611623565b165f52600c602052602060405f2054604051908152f35b34610177575f3660031901126101775761091a611b87565b600780546001600160a01b031981169091555f906001600160a01b03167f8be0079c531659141344cd1fd0a4f28419497f9722a3daafe3b4186f6b6457e08280a3005b34610177576020366003190112610177576001600160a01b0361097e611623565b16801561099b575f526003602052602060405f2054604051908152f35b6322718ad960e21b5f525f60045260245ffd5b346101775760203660031901126101775760206109cc600435611b53565b6040516001600160a01b039091168152f35b3461017757602036600319011261017757610a556109fd60043561164f565b5060068101546007820154610a7f610a14846116f4565b93610a71610a24600183016116f4565b91610a63610a406003610a39600285016116f4565b93016116f4565b93604051998a9960c08b5260c08b01906115ff565b9089820360208b01526115ff565b9087820360408901526115ff565b9085820360608701526115ff565b91608084015260a08301520390f35b3461017757610120366003190112610177576004356001600160401b03811161017757610abf90369060040161181f565b6024356001600160401b03811161017757610ade90369060040161181f565b906044356001600160401b03811161017757610afe90369060040161181f565b906064356001600160401b03811161017757610b1e90369060040161181f565b906084356001600160401b03811161017757610b3e90369060040161181f565b9360a4359063ffffffff82168092036101775760c4359063ffffffff821680920361017757610b6b611b87565b604051610b77816116b7565b84815260208101828152604082018881526060830188815260808401908b825260a085019188835260c086019188835260e087019460e4358652610100880196610104358852600a546801000000000000000081101561045c57806001610be19201600a5561164f565b99909961121b57518051906001600160401b03821161045c578190610c068c5461167f565b601f81116111cb575b50602090601f8311600114611168575f9261115d575b50508160011b915f199060031b1c19161789555b51805160018a01916001600160401b03821161045c578190610c5b845461167f565b601f811161110d575b50602090601f83116001146110aa575f9261109f575b50508160011b915f199060031b1c19161790555b51805160028901916001600160401b03821161045c578190610cb0845461167f565b601f811161104f575b50602090601f8311600114610fec575f92610fe1575b50508160011b915f199060031b1c19161790555b51805160038801916001600160401b03821161045c578190610d05845461167f565b601f8111610f91575b50602090601f8311600114610f2e575f92610f23575b50508160011b915f199060031b1c19161790555b51805160048701916001600160401b03821161045c57610d58835461167f565b601f8111610ede575b50602090601f8311600114610e74576007979695949392915f9183610e69575b50508160011b915f199060031b1c19161790555b63ffffffff6005870192511667ffffffff000000008354925160201b16916001600160401b0319161717905551600684015551910155600a54965f1988019788116106dc57610e4b610e2196610e3d7f4468c5aae8df05ac19ff910722d0fd304fce9062088b212ca160b89e1303e1f499610e2f610e59966040519b8c9b60e08d5260e08d01906115ff565b908b820360208d01526115ff565b9089820360408b01526115ff565b9087820360608901526115ff565b9085820360808701526115ff565b9160a084015260c08301520390a2005b015190505f80610d81565b90601f19831691845f52815f20925f5b818110610ec6575091600193918560079b9a999897969410610eae575b505050811b019055610d95565b01515f1960f88460031b161c191690555f8080610ea1565b92936020600181928786015181550195019301610e84565b835f5260205f20601f840160051c81019160208510610f19575b601f0160051c01905b818110610f0e5750610d61565b5f8155600101610f01565b9091508190610ef8565b015190505f80610d24565b5f8581528281209350601f198516905b818110610f795750908460019594939210610f61575b505050811b019055610d38565b01515f1960f88460031b161c191690555f8080610f54565b92936020600181928786015181550195019301610f3e565b909150835f5260205f20601f840160051c81019160208510610fd7575b90601f859493920160051c01905b818110610fc95750610d0e565b5f8155849350600101610fbc565b9091508190610fae565b015190505f80610ccf565b5f8581528281209350601f198516905b818110611037575090846001959493921061101f575b505050811b019055610ce3565b01515f1960f88460031b161c191690555f8080611012565b92936020600181928786015181550195019301610ffc565b909150835f5260205f20601f840160051c81019160208510611095575b90601f859493920160051c01905b8181106110875750610cb9565b5f815584935060010161107a565b909150819061106c565b015190505f80610c7a565b5f8581528281209350601f198516905b8181106110f557509084600195949392106110dd575b505050811b019055610c8e565b01515f1960f88460031b161c191690555f80806110d0565b929360206001819287860151815501950193016110ba565b909150835f5260205f20601f840160051c81019160208510611153575b90601f859493920160051c01905b8181106111455750610c64565b5f8155849350600101611138565b909150819061112a565b015190505f80610c25565b5f8d81528281209350601f198516905b8181106111b3575090846001959493921061119b575b505050811b018955610c39565b01515f1960f88460031b161c191690555f808061118e565b92936020600181928786015181550195019301611178565b9091508b5f5260205f20601f840160051c81019160208510611211575b90601f859493920160051c01905b8181106112035750610c0f565b5f81558493506001016111f6565b90915081906111e8565b634e487b7160e01b5f525f60045260245ffd5b34610177576105d061123f36611794565b906040519261124f6020856116d3565b5f84526119e3565b34610177576105d061126836611794565b9161183d565b34610177575f366003190112610177576020600954604051908152f35b3461017757602036600319011261017757600435600a54811015610177576112b29061164f565b506101206112bf826116f4565b916112cc600182016116f4565b6112d8600283016116f4565b9163ffffffff6113606112ed600384016116f4565b6113526112fc600486016116f4565b91611344600587015498611336600760068a0154990154996113286040519e8f9e8f81815201906115ff565b8d810360208f0152906115ff565b908b820360408d01526115ff565b9089820360608b01526115ff565b9087820360808901526115ff565b9381811660a087015260201c1660c085015260e08401526101008301520390f35b346101775760403660031901126101775761139a611623565b6024356113a681611b53565b33151580611458575b8061142b575b6114185781906001600160a01b0384811691167f8c5be1e5ebec7d5bd14f71427d1e84f3dd0314c0f7b2291e5b200ac8c7c3b9255f80a45f90815260046020526040902080546001600160a01b0319166001600160a01b03909216919091179055005b63a9fbf51f60e01b5f523360045260245ffd5b506001600160a01b0381165f90815260056020908152604080832033845290915290205460ff16156113b5565b506001600160a01b0381163314156113af565b346101775760203660031901126101775760043561148881611b53565b505f526004602052602060018060a01b0360405f205416604051908152f35b34610177575f366003190112610177576040515f5f546114c68161167f565b808452906001811690811561052e57506001146114ed576104cc836104b8818503826116d3565b5f8080527f290decd9548b62a8d60345a988386fc84ba6bc95484008f6362f93160ef3e563939250905b80821061152f575090915081016020016104b86104a8565b919260018160209254838588010152019101909291611517565b346101775760203660031901126101775760043563ffffffff60e01b811680910361017757602090632483248360e11b811490811561158e575b506040519015158152f35b6380ac58cd60e01b8114915081156115c0575b81156115af575b5082611583565b6301ffc9a760e01b149050826115a8565b635b5e139f60e01b811491506115a1565b34610177576020366003190112610177576020906004355f52600b825260018060a01b0360405f2054168152f35b805180835260209291819084018484015e5f828201840152601f01601f1916010190565b600435906001600160a01b038216820361017757565b602435906001600160a01b038216820361017757565b600a5481101561166b57600a5f5260205f209060031b01905f90565b634e487b7160e01b5f52603260045260245ffd5b90600182811c921680156116ad575b602083101461169957565b634e487b7160e01b5f52602260045260245ffd5b91607f169161168e565b61012081019081106001600160401b0382111761045c57604052565b90601f801991011681019081106001600160401b0382111761045c57604052565b9060405191825f8254926117078461167f565b8084529360018116908115611772575060011461172e575b5061172c925003836116d3565b565b90505f9291925260205f20905f915b81831061175657505090602061172c928201015f61171f565b602091935080600191548385890101520191019091849261173d565b90506020925061172c94915060ff191682840152151560051b8201015f61171f565b6060906003190112610177576004356001600160a01b038116810361017757906024356001600160a01b0381168103610177579060443590565b6001600160401b03811161045c57601f01601f191660200190565b9291926117f5826117ce565b9161180360405193846116d3565b829481845281830111610177578281602093845f960137010152565b9080601f830112156101775781602061183a933591016117e9565b90565b6001600160a01b03909116919082156119d0575f828152600260205260409020546001600160a01b03169282903315158061193b575b5084611902575b805f52600360205260405f2060018154019055815f52600260205260405f20816bffffffffffffffffffffffff60a01b825416179055847fddf252ad1be2c89b69c2b068fc378daa952ba7f163c4a11628f55a4df523b3ef5f80a46001600160a01b03168083036118ea57505050565b6364283d7b60e01b5f5260045260245260445260645ffd5b815f52600460205260405f206bffffffffffffffffffffffff60a01b8154169055845f52600360205260405f205f19815401905561187a565b9091508061197f575b156119515782905f611873565b828461196957637e27328960e01b5f5260045260245ffd5b63177e802f60e01b5f523360045260245260445ffd5b5033841480156119ae575b8061194457505f838152600460205260409020546001600160a01b03163314611944565b505f84815260056020908152604080832033845290915290205460ff1661198a565b633250574960e11b5f525f60045260245ffd5b92916119f081838661183d565b813b6119fd575b50505050565b604051630a85bd0160e11b81523360048201526001600160a01b0394851660248201526044810191909152608060648201529216919060209082908190611a489060848301906115ff565b03815f865af15f9181611ade575b50611aab57503d15611aa4573d611a6c816117ce565b90611a7a60405192836116d3565b81523d5f602083013e5b80519081611a9f5782633250574960e11b5f5260045260245ffd5b602001fd5b6060611a84565b6001600160e01b03191663757a42ff60e11b01611acc57505f8080806119f7565b633250574960e11b5f5260045260245ffd5b9091506020813d602011611b1b575b81611afa602093836116d3565b8101031261017757516001600160e01b03198116810361017757905f611a56565b3d9150611aed565b611b2c81611b53565b505f526006602052611b4060405f206116f4565b5f604051611b4f6020826116d3565b5290565b5f818152600260205260409020546001600160a01b0316908115611b75575090565b637e27328960e01b5f5260045260245ffd5b6007546001600160a01b03163303611b9b57565b63118cdaa760e01b5f523360045260245ffdfea26469706673582212205f9129745f9f5baf4547ac59b6d4a3b671adfd0b6456043eca2790fa9873752064736f6c634300081c0033",
    "sourcePath": "/home/malek/Documents/M2/Projects/DAAR/projet/CCG-Yu-Gi-Oh-/contracts/src/Collection.sol",
    "compiler": {
        "name": "solc",
        "version": "0.8.28+commit.7893614a"
    },
    "functionHashes": {
        "CollectionCards(uint256)": "17580c73",
        "addCard(string,string,string,string,string,uint32,uint32,uint256,uint256)": "4a10cb97",
        "approve(address,uint256)": "095ea7b3",
        "balanceOf(address)": "70a08231",
        "cardCount()": "1b6cde10",
        "cardToOwner(uint256)": "ffb976ec",
        "collectionName()": "e5326ab1",
        "getApproved(uint256)": "081812fc",
        "getCardDetails(uint256)": "60fe9952",
        "getCardOwner(uint256)": "010abbd0",
        "getCollectionCards()": "e55c6eab",
        "getOwnerCardCount(address)": "2607fc66",
        "isApprovedForAll(address,address)": "e985e9c5",
        "name()": "06fdde03",
        "owner()": "8da5cb5b",
        "ownerCardCount(address)": "804c4b25",
        "ownerOf(uint256)": "6352211e",
        "purchaseCard(uint256)": "a54447aa",
        "renounceOwnership()": "715018a6",
        "safeTransferFrom(address,address,uint256)": "42842e0e",
        "safeTransferFrom(address,address,uint256,bytes)": "b88d4fde",
        "setApprovalForAll(address,bool)": "a22cb465",
        "supportsInterface(bytes4)": "01ffc9a7",
        "symbol()": "95d89b41",
        "tokenURI(uint256)": "c87b56dd",
        "transferFrom(address,address,uint256)": "23b872dd",
        "transferOwnership(address)": "f2fde38b"
    },
    "gasEstimates": {
        "creation": {
            "codeDepositCost": "1428000",
            "executionCost": "infinite",
            "totalCost": "infinite"
        },
        "external": {
            "CollectionCards(uint256)": "infinite",
            "addCard(string,string,string,string,string,uint32,uint32,uint256,uint256)": "infinite",
            "approve(address,uint256)": "31168",
            "balanceOf(address)": "2711",
            "cardCount()": "2388",
            "cardToOwner(uint256)": "2908",
            "collectionName()": "infinite",
            "getApproved(uint256)": "4647",
            "getCardDetails(uint256)": "infinite",
            "getCardOwner(uint256)": "2331",
            "getCollectionCards()": "infinite",
            "getOwnerCardCount(address)": "2582",
            "isApprovedForAll(address,address)": "3101",
            "name()": "infinite",
            "owner()": "2632",
            "ownerCardCount(address)": "2736",
            "ownerOf(uint256)": "2682",
            "purchaseCard(uint256)": "infinite",
            "renounceOwnership()": "28368",
            "safeTransferFrom(address,address,uint256)": "infinite",
            "safeTransferFrom(address,address,uint256,bytes)": "infinite",
            "setApprovalForAll(address,bool)": "26818",
            "supportsInterface(bytes4)": "409",
            "symbol()": "infinite",
            "tokenURI(uint256)": "infinite",
            "transferFrom(address,address,uint256)": "106398",
            "transferOwnership(address)": "28721"
        },
        "internal": {
            "mint(address,uint256,string memory)": "infinite"
        }
    }
}